:100000000A128A110C280134FE00030EF0000A08BF
:10001000F1000A128A151B2F0A128A110F280A12E0
:100020008A11FE270A128A11C1000A128A11FF27BB
:100030000A128A11C2000A128A1103200A128A11B6
:10004000FB00B401B501B601B701B801B901BA01AD
:10005000BB01BC01BD01BE01BF01C001F901FA0134
:1000600083010A128A11FB2A83120313AD00103098
:1000700029062A04031D3D283E286728BD01B60134
:10008000B701BC01BE01BB01FF30AD006230F6001C
:100090008530F7008030F8000A128A15EC260A1223
:1000A0008A11BB30F6008530F700C030F8000A1224
:1000B0008A15EC260A128A112230F6008530F700E4
:1000C000D030F8000A128A15EC260A128A112A305A
:1000D000831203132D0603196E286F288F282330EF
:1000E0002D060319742875288F282D0A03197928DD
:1000F0007A288F280130BD0704303D02031881287B
:10010000822815290A30F2003B080A128A156B264C
:100110000A128A11831203132D07BB0015292A30F6
:100120002D06031D942895289828BB01BD0115298B
:1001300023302D06031D9D289E2815290A128A1595
:1001400047260A128A117F30F6008530F70080308A
:10015000F8000A128A15EC260A128A119A30F60063
:100160008530F7009030F8000A128A15EC260A1242
:100170008A118312031312151230C00006299C3015
:10018000A8000A30A4000030A5000A30F2000030B8
:10019000F3004008AB00AC012B08F4002C08F5007C
:1001A0000A128A1153240A128A1173088312031344
:1001B000A7007208A6000A128A15A7270A128A1138
:1001C000831203132408303E0A128A1558260A1295
:1001D0008A119D3083120313A8000A30A400003056
:1001E000A5004008AB00AC012B08A6002C08A70016
:1001F0000A128A15A7270A128A11831203132408E8
:10020000303E0A128A1558260A128A1183120313E5
:100210004008031D0C290D29BF284008031D112982
:10022000122915290130BE0012110130B60703183A
:10023000B70A0030B707103036063704031D2129EE
:1002400022298E29B601B7013C08031928292A2939
:1002500001302B290030BC00C830A8006430F20007
:100260000030F3003B08AB00AC012B08F4002C0875
:10027000F5000A128A1153240A128A117208303EBC
:100280000A128A1558260A128A11C93083120313DA
:10029000A8000A30A4000030A5000A30F2000030A7
:1002A000F3003B08AB00AC012B08F4002C08F50070
:1002B0000A128A1153240A128A1173088312031333
:1002C000A7007208A6000A128A15A7270A128A1127
:1002D000831203132408303E0A128A1558260A1284
:1002E0008A11CA3083120313A8000A30A400003018
:1002F000A5003B08AB00AC012B08A6002C08A7000A
:100300000A128A15A7270A128A11831203132408D6
:10031000303E0A128A1558260A128A1183120313D4
:100320003C08031994299529A029F230F60085305C
:10033000F700C830F8000A128A15EC260A128A1152
:10034000080083120313AD00103029062A04031D90
:10035000AA29AB29D529BA01C001BF01B901B4014D
:10036000B501B801FF30AD001130F6008530F7005F
:100370008030F8000A128A15EC260A128A11ED3034
:10038000F6008530F700C030F8000A128A15EC2616
:100390000A128A113330F6008530F700D030F800A9
:1003A0000A128A15EC260A128A112A3083120313C4
:1003B0002D060319DC29DD29192A23302D060319FE
:1003C000E229E329192A2D0A0319E729E829192A1C
:1003D0000130BA0703303A020318EF29F029FE2949
:1003E0000A30F20040080A128A156B260A128A1196
:1003F000831203132D07C000B901432A03303A02C8
:10040000031C032A042A432A05303A020318092A46
:100410000A2A432A0A30F2003F080A128A156B267C
:100420000A128A11831203132D07BF000130B9008D
:10043000432A2A302D06031D1E2A1F2A302A390876
:10044000031D232A242A272AC001BA01432A39037B
:10045000031D2B2A2C2A432ABF010230BA00432A4B
:1004600023302D06031D352A362A432A0A128A15FF
:1004700047260A128A11073083120313C100003085
:10048000C200071512150130B4070318B50A003071
:10049000B507103034063504031D4F2A502AD22ADE
:1004A000B401B50138080319562A582A0130592ACF
:1004B0000030B800C630A8000A30F2000030F30067
:1004C0003F08AB00AC012B08F4002C08F5000A1221
:1004D0008A1153240A128A117208303E0A128A15B0
:1004E00058260A128A11C73083120313A8000A3053
:1004F000A4000030A5003F08AB00AC012B08A6000B
:100500002C08A7000A128A15A7270A128A1183123B
:1005100003132408303E0A128A1558260A128A113B
:10052000C83083120313A8003A300A128A155826DD
:100530000A128A11C93083120313A8000A30F2008C
:100540000030F3004008AB00AC012B08F4002C088D
:10055000F5000A128A1153240A128A117208303ED9
:100560000A128A1558260A128A11CA3083120313F6
:10057000A8000A30A4000030A5004008AB00AC0180
:100580002B08A6002C08A7000A128A15A7270A1212
:100590008A11831203132408303E0A128A15582642
:1005A0000A128A118312031338080319D82AD92A88
:1005B000FA2AF22AF230F6008530F700C930F80046
:1005C0000A128A15EC260A128A11FA2AF230F6006B
:1005D0008530F700C630F8000A128A15EC260A1298
:1005E0008A11FA2A3908003A0319DA2A013A03195A
:1005F000E62AFA2A08000A128A157E260A128A11A9
:1006000001300A128A159C260A128A1183120313DA
:10061000B300023041064204031D0F2B102B772B31
:100620003303031D142B152B412B0330C100003065
:10063000C2001030B1000030B2000A128A154726FD
:100640000A128A115330F6008530F700C030F800E6
:100650000A128A15EC260A128A114D3083120313EE
:10066000B0001930AF004F30AE00AE0B352BAF0BE2
:10067000352BB00B352B0A128A1547260A128A1120
:10068000282C02303306031D462B472B502B0430F9
:10069000C1000030C2001030B1000030B2003B2B6E
:1006A00003303306031D552B562B5F2B0530C1003D
:1006B0000030C2001030B1000030B2003B2B0430DB
:1006C0003306031D642B652B762B1E30C000BF0143
:1006D000071512150A128A1547260A128A110730C1
:1006E00083120313C1000030C200282C282C0730CD
:1006F00041064204031D7D2B7E2BA92B04303306BB
:10070000031D832B842B932B40081E3EC0003C30DE
:100710004002031C8C2B8D2B282C0130BF07400876
:10072000C43EC000282C05303306031D982B992B9E
:100730009E2B0930C1000030C200282C0630330641
:10074000031DA32BA42B762B0A30C1000030C2005E
:100750003B2B093041064204031DAF2BB02B762BF7
:1007600004303306031DB52BB62B282C07151215A4
:100770006F2B0A128A1191270A128A1102308312F2
:100780000313C1000030C2000A128A1547260A125C
:100790008A11492C0A128A15BF260A128A11492C7D
:1007A0003208AA003108A90033080A128A11A121CF
:1007B0000A128A11492C3208AA003108A90033080C
:1007C0000A128A11A1210A128A11492C3E08031D1E
:1007D000EA2BEB2B082C3208AA003108A9003308B9
:1007E0000A128A1134200A128A11831203133E035B
:1007F000031DFB2BFC2B492C0A128A1547260A12D3
:100800008A11103083120313B1000030B200002BA4
:100810003E03031D0C2C0D2C492C3208AA00310874
:10082000A90033080A128A11A1210A128A11492C3F
:100830000A128A11F4250A128A11492C0711121181
:10084000492C071112110230C1000030C200492C9E
:10085000831203134208003A03192F2C492C410834
:10086000013A0319B92B033A0319CA2B013A0319A8
:10087000DB2B073A0319D02B013A0319E62B023A76
:100880000319182C0E3A03191E2C033A0319212CB4
:10089000492C0F3083120313B1000030B200002B3B
:1008A0000A128A110C2883120313A101F31F592C79
:1008B0005A2C612CF209F309F20A0319F30A0130E8
:1008C000A100F51F642C652C6C2CF409F509F40AC1
:1008D0000319F50A0130A106A201A30172087304ED
:1008E0000319732C742CA92C0130A000802C01302A
:1008F0000310F20DF30DFF3E031D782C0130A0070D
:10090000F31F832C842C772C01300310A20DA30D30
:10091000FF3E031D852C73087502031D912C720880
:100920007402031C942C952C9C2C7208F4027308FE
:10093000031CF503F502221401300310F30CF20C32
:10094000FF3E031D9D2C0130A002031DA82CA92CE5
:10095000842C21080319AD2CAE2CB32CA209A309B9
:10096000A20A0319A30A2308F3002208F2000800D0
:10097000F5007218BC2CC02C831203130915C32C6C
:100980008312031309117508F03988008914A63001
:10099000F300F30BC92C00008312031389107508B0
:1009A0000F39F30003300310F30DFF3E031DD32C6A
:1009B0000310730D88008914A630F300F30BDE2CAE
:1009C00000008312031389101B30F4009E30F300E3
:1009D000F30BE82CF40BE82C00000800FF1BF82CAC
:1009E00083137F1883170008840A0319FF0A08007D
:1009F0007F087F398A000408840A0319FF0A8200ED
:100A000020344D346934633472346F347734613454
:100A10007634653420344F34763465346E34203483
:100A200000345334453454342034543449344D3430
:100A30004534203428344D344D343A34533453340F
:100A4000293400342A343A3443344C344534413464
:100A500052342034203423343A3445344E34543420
:100A60004534523400342A343A3443344C34453417
:100A700041345234203423343A3445344E345434DF
:100A8000453452340034203434342E3453347434E6
:100A90006134723474342F345234653473347534A1
:100AA0006D3465340034203470346F3477346534F9
:100AB000723420343D342034393430343034773497
:100AC00020340034203453344534543420345434E6
:100AD00045344D345034203428346F344334293471
:100AE0000034203450346F347734653472346934D0
:100AF0006E34673420344F344E3420340034203484
:100B00005034723465342D3448346534613474346F
:100B100069346E3467342034003433342E34433433
:100B20006F346E34763465346334743469346F34BE
:100B30006E340034543469346D34653420345234A6
:100B400065346D342E343D34203400342034543434
:100B500069346D3465342034553470342034213494
:100B6000213400342034543449344D344534203455
:100B70003D34203400342034543445344D34503422
:100B800020343D3420340034203435342E34503475
:100B90006134753473346534003432342E34473460
:100BA000723469346C346C34003431342E344D3446
:100BB0006934633472346F340034203436342E3464
:100BC000533474346F347034003434342E3453342A
:100BD00074346134723474340034543449344D34D0
:100BE00045342D3420340034B230F6008530F7001F
:100BF0008030F8000A128A15EC260A128A11893010
:100C000083120313A8000A30F2000030F3003F08FB
:100C1000A900AA012908F4002A08F5000A128A117D
:100C200053240A128A117208303E0A128A15582675
:100C30000A128A118A3083120313A8000A30A40012
:100C40000030A5003F08A900AA012908A6002A082B
:100C5000A7000A128A15A7270A128A118312031302
:100C60002408303E0A128A1558260A128A118B303F
:100C700083120313A8003A300A128A1558260A1262
:100C80008A118C3083120313A8000A30F20000305E
:100C9000F3004008A900AA012908F4002A08F50079
:100CA0000A128A1153240A128A117208303E0A125B
:100CB0008A1558260A128A118D3083120313A80050
:100CC0000A30A4000030A5004008A900AA012908A4
:100CD000A6002A08A7000A128A15A7270A128A1155
:100CE000831203132408303E0A128A1558260A126A
:100CF0008A114330F6008530F700C030F8000A1240
:100D00008A15EC260A128A11C430F6008530F700E5
:100D10009030F8000A128A15EC260A128A11DD308A
:100D2000F6008530F700D030F8000A128A15EC265C
:100D30000A128A11831203134008031DA02EA12E4C
:100D4000D52E3F08031DA52EA62ED52E0A128A15D4
:100D500047260A128A11A630F6008530F700C03007
:100D6000F8000A128A15EC260A128A11831203135C
:100D700087144D3083120313AB001930AA004F3093
:100D8000A900A90BC12EAA0BC12EAB0BC12E0A12B2
:100D90008A1547260A128A11831203138710071136
:100DA00012110230C1000030C20008008312031388
:100DB00088110815881408146430F2000030F3001C
:100DC000FF30F2070318F30AFF30F307720A031D1E
:100DD000ED2E730A031DED2EEE2EE02E831203136B
:100DE0000618F32EF42EF62E0130902F8618F92EC9
:100DF000FA2EFC2E0230902F0619FF2E002F022F04
:100E00000330902F88150811881408146430F200FC
:100E10000030F300FF30F2070318F30AFF30F30746
:100E20007308803AFF0080307F02031D192F0130C4
:100E3000720203181C2F1D2F0A2F8312031306188A
:100E4000222F232F252F0430902F8618282F292F6B
:100E50002B2F0530902F06192E2F2F2F312F0630D4
:100E6000902F88150815881008146430F20000309F
:100E7000F300FF30F2070318F30AFF30F30773089B
:100E8000803AFF0080307F02031D482F013072023C
:100E900003184B2F4C2F392F831203130618512F91
:100EA000522F542F0730902F8618572F582F5A2F14
:100EB0000830902F06195D2F5E2F602F0930902F7C
:100EC00088150815881408106430F2000030F3000B
:100ED000FF30F2070318F30AFF30F3077308803A74
:100EE000FF0080307F02031D772F0130720203184C
:100EF0007A2F7B2F682F831203130618802F812FE0
:100F0000832F2A30902F8618862F872F892F003025
:100F1000902F06198C2F8D2F8F2F2330902FFF307D
:100F2000080083120313AC012C08803EA800FF3098
:100F30000A128A1558260A128A11033083120313E3
:100F4000AB008A30AA005530A900A90BA52FAA0B27
:100F5000A52FAB0BA52F013083120313AC07103064
:100F60002C02031CB42FB52F942F7130F60085305E
:100F7000F700C030F8000A128A15EC260A128A110E
:100F80000030F6008530F7009030F8000A128A151C
:100F9000EC260A128A1183120313AC012C08D03EEE
:100FA000A800FF300A128A1558260A128A11033047
:100FB00083120313AB008A30AA005530A900A90B95
:100FC000DF2FAA0BDF2FAB0BDF2F013083120313B0
:100FD000AC0710302C02031CEE2FEF2FCE2F4D301C
:100FE00083120313AB001930AA004F30A900A90BDC
:100FF000F72FAA0BF72FAB0BF72F080001340034A3
:101C3E00831603138801091189100A128A15502779
:101C4E000A128A1508008312031312149214FA3022
:101C5E008316031392008C148312031312110800BF
:101C6E00831603130608073886000808F039880023
:101C7E00811383120313881508158814081408009D
:101C8E00F20101300A128A11B8240A128A150430A0
:101C9E00F7003D30F600F60B522EF70B522E572E54
:101CAE000800F800F2018312031328080A128A11A1
:101CBE00B8240A128A15F201F20A78080A128A1159
:101CCE00B8240A128A150800F400F301741C702E51
:101CDE00712E732E7208F3070310F20D0310F40C1D
:101CEE007408031D7B2E7C2E6D2E730808000A12BD
:101CFE008A151F260A128A150A128A1537260A1203
:101D0E008A15831603130711831203130711831603
:101D1E00031387108312031387100A128A152A26BB
:101D2E000A128A150B178B170800F4000A128A1173
:101D3E00D6260A128A15F5007408031DA72EA82EA2
:101D4E00AA2E7508BE2E750A0319AE2EAF2EB62E0C
:101D5E007B080319B32EB42EB62EFB01A82E750ADE
:101D6E00031DBA2EBB2EBD2E0130FB00FF30080026
:101D7E00D530F6008530F7008030F8000A128A154B
:101D8E00EC260A128A15CD30F6008530F700C030E9
:101D9E00F8000A128A15EC260A128A158D30F60002
:101DAE008530F7009030F8000A128A15EC260A12D8
:101DBE008A15E530F6008530F700D030F8000A12AB
:101DCE008A15EC260A128A150800F20178080A1202
:101DDE008A11B8240A128A150A2FF201F20A77081C
:101DEE00FF00760884000A128A11EE240A128A1560
:101DFE000A128A11B8240A128A150130F60703183E
:101E0E00F70A0030F707770883120313FF007608EE
:101E1E0084000A128A11EE240A128A15003A031D52
:101E2E00192F1A2FF42E0800831203138C1C202F47
:101E3E00212F492F0130F9070318FA0A0030FA074B
:101E4E00E2307906043003197A06031D2F2F302F46
:101E5E00482FF901FA0140080319362F372F3A2F70
:101E6E000130C002482F4008031D3E2F3F2F482F40
:101E7E003F080319432F442F482F0130BF023B3038
:101E8E00C0008C1071088A00700E8300FE0E7E0E4C
:101E9E000900C330F700CD30F600F60B542FF70BC8
:101EAE00542FF20133300A128A11B8240A128A15FD
:101EBE001B30F7009E30F600F60B632FF70B632FE7
:101ECE000000F20133300A128A11B8240A128A1560
:101EDE00A630F600F60B712F0000F20133300A1215
:101EEE008A11B8240A128A157C2F7D2F0000F20168
:101EFE0002300A128A11B8240A128A15A630F60088
:101F0E00F60B872F0000F20101300A128A11B82455
:101F1E000A128A150430F7003D30F600F60B952FA5
:101F2E00F70B952F9A2FF2010C300A128A11B82452
:101F3E000A128A15A630F600F60BA32F0000080031
:101F4E00F70183120313A71FAD2FAE2FB52FA609CE
:101F5E00A709A60A0319A70A0130F700A51FB82F73
:101F6E00B92FBE2FA409A509A40A0319A50A24088E
:101F7E0025040319C32FC42FF12F0130F600D02FE3
:101F8E0001300310A40DA50DFF3E031DC82F013017
:101F9E00F607A51FD32FD42FC72F25082702031D01
:101FAE00DA2F24082602031CDD2FDE2FE42F24084F
:101FBE00A6022508031CA703A70201300310A50CD7
:101FCE00A40CFF3E031DE52F0130F602031DF02F7A
:101FDE00F12FD42F77080319F52FF62FFB2FA60913
:101FEE00A709A60A0319A70A2708A5002608A40010
:021FFE000800D9
:02400E00FB3F76
:00000001FF
